{"contracts/MathTest.sol":{"calc":{"abi":[{"inputs":[{"internalType":"int256","name":"a","type":"int256"}],"name":"getExp","outputs":[{"internalType":"int256","name":"","type":"int256"}],"stateMutability":"pure","type":"function"}],"evm":{"bytecode":{"linkReferences":{},"object":"608060405234801561001057600080fd5b506107ec806100206000396000f3fe608060405234801561001057600080fd5b506004361061002b5760003560e01c8063ae088f2214610030575b600080fd5b61004a600480360381019061004591906106b3565b610060565b60405161005791906106ef565b60405180910390f35b600061006b82610072565b9050919050565b60007ffffffffffffffffffffffffffffffffffffffffffffffffdc702bd3a30fc000082121580156100ad575068070c1cc73b00c800008213155b6100ec576040517f08c379a00000000000000000000000000000000000000000000000000000000081526004016100e390610767565b60405180910390fd5b60008212156101225761010182600003610072565b670de0b6b3a764000080028161011a57610119610787565b5b059050610673565b60006806f05b59d3b20000008312610162576806f05b59d3b200000083039250770195e54c5dd42177f53a27172fa9ec630262827000000000905061019a565b6803782dace9d90000008312610194576803782dace9d9000000830392506b1425982cf597cd205cef73809050610199565b600190505b5b606483029250600068056bc75e2d63100000905068ad78ebc5ac6200000084126101fa5768ad78ebc5ac620000008403935068056bc75e2d631000006e01855144814a7ff805980ff00840008202816101f6576101f5610787565b5b0590505b6856bc75e2d6310000008412610243576856bc75e2d6310000008403935068056bc75e2d631000006b02df0ab5a80a22c61ab5a70082028161023f5761023e610787565b5b0590505b682b5e3af16b18800000841261028a57682b5e3af16b188000008403935068056bc75e2d63100000693f1fce3da636ea5cf85082028161028657610285610787565b5b0590505b6815af1d78b58c40000084126102d1576815af1d78b58c4000008403935068056bc75e2d63100000690127fa27722cc06cc5e28202816102cd576102cc610787565b5b0590505b680ad78ebc5ac6200000841261031757680ad78ebc5ac62000008403935068056bc75e2d6310000068280e60114edb805d0382028161031357610312610787565b5b0590505b68056bc75e2d63100000841261035d5768056bc75e2d631000008403935068056bc75e2d63100000680ebc5fb4174612111082028161035957610358610787565b5b0590505b6802b5e3af16b188000084126103a3576802b5e3af16b18800008403935068056bc75e2d631000006808f00f760a4b2db55d82028161039f5761039e610787565b5b0590505b68015af1d78b58c4000084126103e95768015af1d78b58c400008403935068056bc75e2d631000006806f5f17757889379378202816103e5576103e4610787565b5b0590505b600068056bc75e2d63100000905060008590508082019150600268056bc75e2d631000008783028161041e5761041d610787565b5b058161042d5761042c610787565b5b0590508082019150600368056bc75e2d631000008783028161045257610451610787565b5b058161046157610460610787565b5b0590508082019150600468056bc75e2d631000008783028161048657610485610787565b5b058161049557610494610787565b5b0590508082019150600568056bc75e2d63100000878302816104ba576104b9610787565b5b05816104c9576104c8610787565b5b0590508082019150600668056bc75e2d63100000878302816104ee576104ed610787565b5b05816104fd576104fc610787565b5b0590508082019150600768056bc75e2d631000008783028161052257610521610787565b5b058161053157610530610787565b5b0590508082019150600868056bc75e2d631000008783028161055657610555610787565b5b058161056557610564610787565b5b0590508082019150600968056bc75e2d631000008783028161058a57610589610787565b5b058161059957610598610787565b5b0590508082019150600a68056bc75e2d63100000878302816105be576105bd610787565b5b05816105cd576105cc610787565b5b0590508082019150600b68056bc75e2d63100000878302816105f2576105f1610787565b5b058161060157610600610787565b5b0590508082019150600c68056bc75e2d631000008783028161062657610625610787565b5b058161063557610634610787565b5b059050808201915060648468056bc75e2d631000008486028161065b5761065a610787565b5b05028161066b5761066a610787565b5b059450505050505b919050565b600080fd5b6000819050919050565b6106908161067d565b811461069b57600080fd5b50565b6000813590506106ad81610687565b92915050565b6000602082840312156106c9576106c8610678565b5b60006106d78482850161069e565b91505092915050565b6106e98161067d565b82525050565b600060208201905061070460008301846106e0565b92915050565b600082825260208201905092915050565b7f496e76616c6964206578706f6e656e7400000000000000000000000000000000600082015250565b600061075160108361070a565b915061075c8261071b565b602082019050919050565b6000602082019050818103600083015261078081610744565b9050919050565b7f4e487b7100000000000000000000000000000000000000000000000000000000600052601260045260246000fdfea264697066735822122097d7a51114a1e1631a9f63e8ff37e32a828bd8ffb6e13fc0d0c95a7d018d105364736f6c63430008110033","opcodes":"PUSH1 0x80 PUSH1 0x40 MSTORE CALLVALUE DUP1 ISZERO PUSH2 0x10 JUMPI PUSH1 0x0 DUP1 REVERT JUMPDEST POP PUSH2 0x7EC DUP1 PUSH2 0x20 PUSH1 0x0 CODECOPY PUSH1 0x0 RETURN INVALID PUSH1 0x80 PUSH1 0x40 MSTORE CALLVALUE DUP1 ISZERO PUSH2 0x10 JUMPI PUSH1 0x0 DUP1 REVERT JUMPDEST POP PUSH1 0x4 CALLDATASIZE LT PUSH2 0x2B JUMPI PUSH1 0x0 CALLDATALOAD PUSH1 0xE0 SHR DUP1 PUSH4 0xAE088F22 EQ PUSH2 0x30 JUMPI JUMPDEST PUSH1 0x0 DUP1 REVERT JUMPDEST PUSH2 0x4A PUSH1 0x4 DUP1 CALLDATASIZE SUB DUP2 ADD SWAP1 PUSH2 0x45 SWAP2 SWAP1 PUSH2 0x6B3 JUMP JUMPDEST PUSH2 0x60 JUMP JUMPDEST PUSH1 0x40 MLOAD PUSH2 0x57 SWAP2 SWAP1 PUSH2 0x6EF JUMP JUMPDEST PUSH1 0x40 MLOAD DUP1 SWAP2 SUB SWAP1 RETURN JUMPDEST PUSH1 0x0 PUSH2 0x6B DUP3 PUSH2 0x72 JUMP JUMPDEST SWAP1 POP SWAP2 SWAP1 POP JUMP JUMPDEST PUSH1 0x0 PUSH32 0xFFFFFFFFFFFFFFFFFFFFFFFFFFFFFFFFFFFFFFFFFFFFFFFDC702BD3A30FC0000 DUP3 SLT ISZERO DUP1 ISZERO PUSH2 0xAD JUMPI POP PUSH9 0x70C1CC73B00C80000 DUP3 SGT ISZERO JUMPDEST PUSH2 0xEC JUMPI PUSH1 0x40 MLOAD PUSH32 0x8C379A000000000000000000000000000000000000000000000000000000000 DUP2 MSTORE PUSH1 0x4 ADD PUSH2 0xE3 SWAP1 PUSH2 0x767 JUMP JUMPDEST PUSH1 0x40 MLOAD DUP1 SWAP2 SUB SWAP1 REVERT JUMPDEST PUSH1 0x0 DUP3 SLT ISZERO PUSH2 0x122 JUMPI PUSH2 0x101 DUP3 PUSH1 0x0 SUB PUSH2 0x72 JUMP JUMPDEST PUSH8 0xDE0B6B3A7640000 DUP1 MUL DUP2 PUSH2 0x11A JUMPI PUSH2 0x119 PUSH2 0x787 JUMP JUMPDEST JUMPDEST SDIV SWAP1 POP PUSH2 0x673 JUMP JUMPDEST PUSH1 0x0 PUSH9 0x6F05B59D3B2000000 DUP4 SLT PUSH2 0x162 JUMPI PUSH9 0x6F05B59D3B2000000 DUP4 SUB SWAP3 POP PUSH24 0x195E54C5DD42177F53A27172FA9EC630262827000000000 SWAP1 POP PUSH2 0x19A JUMP JUMPDEST PUSH9 0x3782DACE9D9000000 DUP4 SLT PUSH2 0x194 JUMPI PUSH9 0x3782DACE9D9000000 DUP4 SUB SWAP3 POP PUSH12 0x1425982CF597CD205CEF7380 SWAP1 POP PUSH2 0x199 JUMP JUMPDEST PUSH1 0x1 SWAP1 POP JUMPDEST JUMPDEST PUSH1 0x64 DUP4 MUL SWAP3 POP PUSH1 0x0 PUSH9 0x56BC75E2D63100000 SWAP1 POP PUSH9 0xAD78EBC5AC62000000 DUP5 SLT PUSH2 0x1FA JUMPI PUSH9 0xAD78EBC5AC62000000 DUP5 SUB SWAP4 POP PUSH9 0x56BC75E2D63100000 PUSH15 0x1855144814A7FF805980FF0084000 DUP3 MUL DUP2 PUSH2 0x1F6 JUMPI PUSH2 0x1F5 PUSH2 0x787 JUMP JUMPDEST JUMPDEST SDIV SWAP1 POP JUMPDEST PUSH9 0x56BC75E2D631000000 DUP5 SLT PUSH2 0x243 JUMPI PUSH9 0x56BC75E2D631000000 DUP5 SUB SWAP4 POP PUSH9 0x56BC75E2D63100000 PUSH12 0x2DF0AB5A80A22C61AB5A700 DUP3 MUL DUP2 PUSH2 0x23F JUMPI PUSH2 0x23E PUSH2 0x787 JUMP JUMPDEST JUMPDEST SDIV SWAP1 POP JUMPDEST PUSH9 0x2B5E3AF16B18800000 DUP5 SLT PUSH2 0x28A JUMPI PUSH9 0x2B5E3AF16B18800000 DUP5 SUB SWAP4 POP PUSH9 0x56BC75E2D63100000 PUSH10 0x3F1FCE3DA636EA5CF850 DUP3 MUL DUP2 PUSH2 0x286 JUMPI PUSH2 0x285 PUSH2 0x787 JUMP JUMPDEST JUMPDEST SDIV SWAP1 POP JUMPDEST PUSH9 0x15AF1D78B58C400000 DUP5 SLT PUSH2 0x2D1 JUMPI PUSH9 0x15AF1D78B58C400000 DUP5 SUB SWAP4 POP PUSH9 0x56BC75E2D63100000 PUSH10 0x127FA27722CC06CC5E2 DUP3 MUL DUP2 PUSH2 0x2CD JUMPI PUSH2 0x2CC PUSH2 0x787 JUMP JUMPDEST JUMPDEST SDIV SWAP1 POP JUMPDEST PUSH9 0xAD78EBC5AC6200000 DUP5 SLT PUSH2 0x317 JUMPI PUSH9 0xAD78EBC5AC6200000 DUP5 SUB SWAP4 POP PUSH9 0x56BC75E2D63100000 PUSH9 0x280E60114EDB805D03 DUP3 MUL DUP2 PUSH2 0x313 JUMPI PUSH2 0x312 PUSH2 0x787 JUMP JUMPDEST JUMPDEST SDIV SWAP1 POP JUMPDEST PUSH9 0x56BC75E2D63100000 DUP5 SLT PUSH2 0x35D JUMPI PUSH9 0x56BC75E2D63100000 DUP5 SUB SWAP4 POP PUSH9 0x56BC75E2D63100000 PUSH9 0xEBC5FB41746121110 DUP3 MUL DUP2 PUSH2 0x359 JUMPI PUSH2 0x358 PUSH2 0x787 JUMP JUMPDEST JUMPDEST SDIV SWAP1 POP JUMPDEST PUSH9 0x2B5E3AF16B1880000 DUP5 SLT PUSH2 0x3A3 JUMPI PUSH9 0x2B5E3AF16B1880000 DUP5 SUB SWAP4 POP PUSH9 0x56BC75E2D63100000 PUSH9 0x8F00F760A4B2DB55D DUP3 MUL DUP2 PUSH2 0x39F JUMPI PUSH2 0x39E PUSH2 0x787 JUMP JUMPDEST JUMPDEST SDIV SWAP1 POP JUMPDEST PUSH9 0x15AF1D78B58C40000 DUP5 SLT PUSH2 0x3E9 JUMPI PUSH9 0x15AF1D78B58C40000 DUP5 SUB SWAP4 POP PUSH9 0x56BC75E2D63100000 PUSH9 0x6F5F1775788937937 DUP3 MUL DUP2 PUSH2 0x3E5 JUMPI PUSH2 0x3E4 PUSH2 0x787 JUMP JUMPDEST JUMPDEST SDIV SWAP1 POP JUMPDEST PUSH1 0x0 PUSH9 0x56BC75E2D63100000 SWAP1 POP PUSH1 0x0 DUP6 SWAP1 POP DUP1 DUP3 ADD SWAP2 POP PUSH1 0x2 PUSH9 0x56BC75E2D63100000 DUP8 DUP4 MUL DUP2 PUSH2 0x41E JUMPI PUSH2 0x41D PUSH2 0x787 JUMP JUMPDEST JUMPDEST SDIV DUP2 PUSH2 0x42D JUMPI PUSH2 0x42C PUSH2 0x787 JUMP JUMPDEST JUMPDEST SDIV SWAP1 POP DUP1 DUP3 ADD SWAP2 POP PUSH1 0x3 PUSH9 0x56BC75E2D63100000 DUP8 DUP4 MUL DUP2 PUSH2 0x452 JUMPI PUSH2 0x451 PUSH2 0x787 JUMP JUMPDEST JUMPDEST SDIV DUP2 PUSH2 0x461 JUMPI PUSH2 0x460 PUSH2 0x787 JUMP JUMPDEST JUMPDEST SDIV SWAP1 POP DUP1 DUP3 ADD SWAP2 POP PUSH1 0x4 PUSH9 0x56BC75E2D63100000 DUP8 DUP4 MUL DUP2 PUSH2 0x486 JUMPI PUSH2 0x485 PUSH2 0x787 JUMP JUMPDEST JUMPDEST SDIV DUP2 PUSH2 0x495 JUMPI PUSH2 0x494 PUSH2 0x787 JUMP JUMPDEST JUMPDEST SDIV SWAP1 POP DUP1 DUP3 ADD SWAP2 POP PUSH1 0x5 PUSH9 0x56BC75E2D63100000 DUP8 DUP4 MUL DUP2 PUSH2 0x4BA JUMPI PUSH2 0x4B9 PUSH2 0x787 JUMP JUMPDEST JUMPDEST SDIV DUP2 PUSH2 0x4C9 JUMPI PUSH2 0x4C8 PUSH2 0x787 JUMP JUMPDEST JUMPDEST SDIV SWAP1 POP DUP1 DUP3 ADD SWAP2 POP PUSH1 0x6 PUSH9 0x56BC75E2D63100000 DUP8 DUP4 MUL DUP2 PUSH2 0x4EE JUMPI PUSH2 0x4ED PUSH2 0x787 JUMP JUMPDEST JUMPDEST SDIV DUP2 PUSH2 0x4FD JUMPI PUSH2 0x4FC PUSH2 0x787 JUMP JUMPDEST JUMPDEST SDIV SWAP1 POP DUP1 DUP3 ADD SWAP2 POP PUSH1 0x7 PUSH9 0x56BC75E2D63100000 DUP8 DUP4 MUL DUP2 PUSH2 0x522 JUMPI PUSH2 0x521 PUSH2 0x787 JUMP JUMPDEST JUMPDEST SDIV DUP2 PUSH2 0x531 JUMPI PUSH2 0x530 PUSH2 0x787 JUMP JUMPDEST JUMPDEST SDIV SWAP1 POP DUP1 DUP3 ADD SWAP2 POP PUSH1 0x8 PUSH9 0x56BC75E2D63100000 DUP8 DUP4 MUL DUP2 PUSH2 0x556 JUMPI PUSH2 0x555 PUSH2 0x787 JUMP JUMPDEST JUMPDEST SDIV DUP2 PUSH2 0x565 JUMPI PUSH2 0x564 PUSH2 0x787 JUMP JUMPDEST JUMPDEST SDIV SWAP1 POP DUP1 DUP3 ADD SWAP2 POP PUSH1 0x9 PUSH9 0x56BC75E2D63100000 DUP8 DUP4 MUL DUP2 PUSH2 0x58A JUMPI PUSH2 0x589 PUSH2 0x787 JUMP JUMPDEST JUMPDEST SDIV DUP2 PUSH2 0x599 JUMPI PUSH2 0x598 PUSH2 0x787 JUMP JUMPDEST JUMPDEST SDIV SWAP1 POP DUP1 DUP3 ADD SWAP2 POP PUSH1 0xA PUSH9 0x56BC75E2D63100000 DUP8 DUP4 MUL DUP2 PUSH2 0x5BE JUMPI PUSH2 0x5BD PUSH2 0x787 JUMP JUMPDEST JUMPDEST SDIV DUP2 PUSH2 0x5CD JUMPI PUSH2 0x5CC PUSH2 0x787 JUMP JUMPDEST JUMPDEST SDIV SWAP1 POP DUP1 DUP3 ADD SWAP2 POP PUSH1 0xB PUSH9 0x56BC75E2D63100000 DUP8 DUP4 MUL DUP2 PUSH2 0x5F2 JUMPI PUSH2 0x5F1 PUSH2 0x787 JUMP JUMPDEST JUMPDEST SDIV DUP2 PUSH2 0x601 JUMPI PUSH2 0x600 PUSH2 0x787 JUMP JUMPDEST JUMPDEST SDIV SWAP1 POP DUP1 DUP3 ADD SWAP2 POP PUSH1 0xC PUSH9 0x56BC75E2D63100000 DUP8 DUP4 MUL DUP2 PUSH2 0x626 JUMPI PUSH2 0x625 PUSH2 0x787 JUMP JUMPDEST JUMPDEST SDIV DUP2 PUSH2 0x635 JUMPI PUSH2 0x634 PUSH2 0x787 JUMP JUMPDEST JUMPDEST SDIV SWAP1 POP DUP1 DUP3 ADD SWAP2 POP PUSH1 0x64 DUP5 PUSH9 0x56BC75E2D63100000 DUP5 DUP7 MUL DUP2 PUSH2 0x65B JUMPI PUSH2 0x65A PUSH2 0x787 JUMP JUMPDEST JUMPDEST SDIV MUL DUP2 PUSH2 0x66B JUMPI PUSH2 0x66A PUSH2 0x787 JUMP JUMPDEST JUMPDEST SDIV SWAP5 POP POP POP POP POP JUMPDEST SWAP2 SWAP1 POP JUMP JUMPDEST PUSH1 0x0 DUP1 REVERT JUMPDEST PUSH1 0x0 DUP2 SWAP1 POP SWAP2 SWAP1 POP JUMP JUMPDEST PUSH2 0x690 DUP2 PUSH2 0x67D JUMP JUMPDEST DUP2 EQ PUSH2 0x69B JUMPI PUSH1 0x0 DUP1 REVERT JUMPDEST POP JUMP JUMPDEST PUSH1 0x0 DUP2 CALLDATALOAD SWAP1 POP PUSH2 0x6AD DUP2 PUSH2 0x687 JUMP JUMPDEST SWAP3 SWAP2 POP POP JUMP JUMPDEST PUSH1 0x0 PUSH1 0x20 DUP3 DUP5 SUB SLT ISZERO PUSH2 0x6C9 JUMPI PUSH2 0x6C8 PUSH2 0x678 JUMP JUMPDEST JUMPDEST PUSH1 0x0 PUSH2 0x6D7 DUP5 DUP3 DUP6 ADD PUSH2 0x69E JUMP JUMPDEST SWAP2 POP POP SWAP3 SWAP2 POP POP JUMP JUMPDEST PUSH2 0x6E9 DUP2 PUSH2 0x67D JUMP JUMPDEST DUP3 MSTORE POP POP JUMP JUMPDEST PUSH1 0x0 PUSH1 0x20 DUP3 ADD SWAP1 POP PUSH2 0x704 PUSH1 0x0 DUP4 ADD DUP5 PUSH2 0x6E0 JUMP JUMPDEST SWAP3 SWAP2 POP POP JUMP JUMPDEST PUSH1 0x0 DUP3 DUP3 MSTORE PUSH1 0x20 DUP3 ADD SWAP1 POP SWAP3 SWAP2 POP POP JUMP JUMPDEST PUSH32 0x496E76616C6964206578706F6E656E7400000000000000000000000000000000 PUSH1 0x0 DUP3 ADD MSTORE POP JUMP JUMPDEST PUSH1 0x0 PUSH2 0x751 PUSH1 0x10 DUP4 PUSH2 0x70A JUMP JUMPDEST SWAP2 POP PUSH2 0x75C DUP3 PUSH2 0x71B JUMP JUMPDEST PUSH1 0x20 DUP3 ADD SWAP1 POP SWAP2 SWAP1 POP JUMP JUMPDEST PUSH1 0x0 PUSH1 0x20 DUP3 ADD SWAP1 POP DUP2 DUP2 SUB PUSH1 0x0 DUP4 ADD MSTORE PUSH2 0x780 DUP2 PUSH2 0x744 JUMP JUMPDEST SWAP1 POP SWAP2 SWAP1 POP JUMP JUMPDEST PUSH32 0x4E487B7100000000000000000000000000000000000000000000000000000000 PUSH1 0x0 MSTORE PUSH1 0x12 PUSH1 0x4 MSTORE PUSH1 0x24 PUSH1 0x0 REVERT INVALID LOG2 PUSH5 0x6970667358 0x22 SLT KECCAK256 SWAP8 0xD7 0xA5 GT EQ LOG1 0xE1 PUSH4 0x1A9F63E8 SELFDESTRUCT CALLDATACOPY 0xE3 0x2A DUP3 DUP12 0xD8 SELFDESTRUCT 0xB6 0xE1 EXTCODEHASH 0xC0 0xD0 0xC9 GAS PUSH30 0x18D105364736F6C63430008110033000000000000000000000000000000 "},"methodIdentifiers":{"getExp(int256)":"ae088f22"}}}}}