{
  "_format": "hh-sol-artifact-1",
  "contractName": "YT",
  "sourceName": "contracts/Pendletest/YT.sol",
  "abi": [
    {
      "inputs": [],
      "name": "YTsupply",
      "outputs": [
        {
          "internalType": "uint256",
          "name": "",
          "type": "uint256"
        }
      ],
      "stateMutability": "view",
      "type": "function"
    },
    {
      "inputs": [],
      "name": "b",
      "outputs": [
        {
          "internalType": "uint256",
          "name": "",
          "type": "uint256"
        }
      ],
      "stateMutability": "view",
      "type": "function"
    }
  ],
  "bytecode": "0x6080604052600260005534801561001557600080fd5b5060e0806100246000396000f3fe6080604052348015600f57600080fd5b506004361060325760003560e01c80634df7e3d01460375780636d78a351146051575b600080fd5b603d606b565b604051604891906091565b60405180910390f35b60576071565b604051606291906091565b60405180910390f35b60005481565b60008054905090565b6000819050919050565b608b81607a565b82525050565b600060208201905060a460008301846084565b9291505056fea264697066735822122063cdc3122f82b4295cd80c2140b9331b6da9b57e8b21b7266a128d1f75f350c664736f6c63430008110033",
  "linkReferences": {},
  "deployedLinkReferences": {}
}