{
  "_format": "hh-sol-artifact-1",
  "contractName": "speechLock",
  "sourceName": "contracts/speechLock.sol",
  "abi": [
    {
      "inputs": [
        {
          "internalType": "address",
          "name": "_lp",
          "type": "address"
        },
        {
          "internalType": "address",
          "name": "_speech",
          "type": "address"
        }
      ],
      "stateMutability": "nonpayable",
      "type": "constructor"
    },
    {
      "inputs": [],
      "name": "LP",
      "outputs": [
        {
          "internalType": "contract IERC20",
          "name": "",
          "type": "address"
        }
      ],
      "stateMutability": "view",
      "type": "function"
    },
    {
      "inputs": [],
      "name": "LPlockTime",
      "outputs": [
        {
          "internalType": "uint256",
          "name": "",
          "type": "uint256"
        }
      ],
      "stateMutability": "view",
      "type": "function"
    },
    {
      "inputs": [],
      "name": "LPlockTimeDetermined",
      "outputs": [
        {
          "internalType": "bool",
          "name": "",
          "type": "bool"
        }
      ],
      "stateMutability": "view",
      "type": "function"
    },
    {
      "inputs": [],
      "name": "Speech",
      "outputs": [
        {
          "internalType": "contract IERC20",
          "name": "",
          "type": "address"
        }
      ],
      "stateMutability": "view",
      "type": "function"
    },
    {
      "inputs": [],
      "name": "SpeechLockTime",
      "outputs": [
        {
          "internalType": "uint256",
          "name": "",
          "type": "uint256"
        }
      ],
      "stateMutability": "view",
      "type": "function"
    },
    {
      "inputs": [],
      "name": "SpeechLockTimeDetermined",
      "outputs": [
        {
          "internalType": "bool",
          "name": "",
          "type": "bool"
        }
      ],
      "stateMutability": "view",
      "type": "function"
    },
    {
      "inputs": [],
      "name": "lockLP",
      "outputs": [],
      "stateMutability": "nonpayable",
      "type": "function"
    },
    {
      "inputs": [],
      "name": "lockSpeech",
      "outputs": [],
      "stateMutability": "nonpayable",
      "type": "function"
    },
    {
      "inputs": [],
      "name": "owner",
      "outputs": [
        {
          "internalType": "address",
          "name": "",
          "type": "address"
        }
      ],
      "stateMutability": "view",
      "type": "function"
    },
    {
      "inputs": [
        {
          "internalType": "address",
          "name": "_to",
          "type": "address"
        }
      ],
      "name": "withdrawLP",
      "outputs": [],
      "stateMutability": "nonpayable",
      "type": "function"
    },
    {
      "inputs": [
        {
          "internalType": "address",
          "name": "_to",
          "type": "address"
        },
        {
          "internalType": "uint256",
          "name": "_amount",
          "type": "uint256"
        }
      ],
      "name": "withdrawSpeech",
      "outputs": [],
      "stateMutability": "nonpayable",
      "type": "function"
    }
  ],
  "bytecode": "0x608060405234801561001057600080fd5b50604051610c30380380610c308339818101604052810190610032919061015e565b33600460006101000a81548173ffffffffffffffffffffffffffffffffffffffff021916908373ffffffffffffffffffffffffffffffffffffffff160217905550806002806101000a81548173ffffffffffffffffffffffffffffffffffffffff021916908373ffffffffffffffffffffffffffffffffffffffff16021790555081600360006101000a81548173ffffffffffffffffffffffffffffffffffffffff021916908373ffffffffffffffffffffffffffffffffffffffff160217905550505061019e565b600080fd5b600073ffffffffffffffffffffffffffffffffffffffff82169050919050565b600061012b82610100565b9050919050565b61013b81610120565b811461014657600080fd5b50565b60008151905061015881610132565b92915050565b60008060408385031215610175576101746100fb565b5b600061018385828601610149565b925050602061019485828601610149565b9150509250929050565b610a83806101ad6000396000f3fe608060405234801561001057600080fd5b50600436106100a95760003560e01c8063a2c536d911610071578063a2c536d91461011c578063a651224514610138578063b6fccf8a14610156578063c579535a14610174578063de91171e14610190578063f0aa4aaa146101ae576100a9565b8063763d7353146100ae57806376b355cc146100b85780638da5cb5b146100d65780639595eba7146100f45780639f85e76214610112575b600080fd5b6100b66101cc565b005b6100c0610271565b6040516100cd9190610737565b60405180910390f35b6100de610284565b6040516100eb9190610793565b60405180910390f35b6100fc6102aa565b604051610109919061080d565b60405180910390f35b61011a6102ce565b005b6101366004803603810190610131919061088f565b610373565b005b61014061052a565b60405161014d9190610737565b60405180910390f35b61015e61053d565b60405161016b919061080d565b60405180910390f35b61018e600480360381019061018991906108cf565b610563565b005b610198610710565b6040516101a5919061090b565b60405180910390f35b6101b6610716565b6040516101c3919061090b565b60405180910390f35b600460009054906101000a900473ffffffffffffffffffffffffffffffffffffffff1673ffffffffffffffffffffffffffffffffffffffff163373ffffffffffffffffffffffffffffffffffffffff161480156102365750600260009054906101000a900460ff16155b61023f57600080fd5b62278d004261024e9190610955565b6000819055506001600260006101000a81548160ff021916908315150217905550565b600260019054906101000a900460ff1681565b600460009054906101000a900473ffffffffffffffffffffffffffffffffffffffff1681565b60028054906101000a900473ffffffffffffffffffffffffffffffffffffffff1681565b600460009054906101000a900473ffffffffffffffffffffffffffffffffffffffff1673ffffffffffffffffffffffffffffffffffffffff163373ffffffffffffffffffffffffffffffffffffffff161480156103385750600260019054906101000a900460ff16155b61034157600080fd5b6276a700426103509190610955565b6001819055506001600260016101000a81548160ff021916908315150217905550565b600460009054906101000a900473ffffffffffffffffffffffffffffffffffffffff1673ffffffffffffffffffffffffffffffffffffffff163373ffffffffffffffffffffffffffffffffffffffff161480156103d257506001544210155b6103db57600080fd5b600060028054906101000a900473ffffffffffffffffffffffffffffffffffffffff1673ffffffffffffffffffffffffffffffffffffffff166370a08231306040518263ffffffff1660e01b81526004016104369190610793565b602060405180830381865afa158015610453573d6000803e3d6000fd5b505050506040513d601f19601f82011682018060405250810190610477919061099e565b90508082111561048657600080fd5b60028054906101000a900473ffffffffffffffffffffffffffffffffffffffff1673ffffffffffffffffffffffffffffffffffffffff1663a9059cbb84846040518363ffffffff1660e01b81526004016104e19291906109cb565b6020604051808303816000875af1158015610500573d6000803e3d6000fd5b505050506040513d601f19601f820116820180604052508101906105249190610a20565b50505050565b600260009054906101000a900460ff1681565b600360009054906101000a900473ffffffffffffffffffffffffffffffffffffffff1681565b600460009054906101000a900473ffffffffffffffffffffffffffffffffffffffff1673ffffffffffffffffffffffffffffffffffffffff163373ffffffffffffffffffffffffffffffffffffffff161480156105c257506000544210155b6105cb57600080fd5b6000600360009054906101000a900473ffffffffffffffffffffffffffffffffffffffff1673ffffffffffffffffffffffffffffffffffffffff166370a08231306040518263ffffffff1660e01b81526004016106289190610793565b602060405180830381865afa158015610645573d6000803e3d6000fd5b505050506040513d601f19601f82011682018060405250810190610669919061099e565b9050600360009054906101000a900473ffffffffffffffffffffffffffffffffffffffff1673ffffffffffffffffffffffffffffffffffffffff1663a9059cbb83836040518363ffffffff1660e01b81526004016106c89291906109cb565b6020604051808303816000875af11580156106e7573d6000803e3d6000fd5b505050506040513d601f19601f8201168201806040525081019061070b9190610a20565b505050565b60015481565b60005481565b60008115159050919050565b6107318161071c565b82525050565b600060208201905061074c6000830184610728565b92915050565b600073ffffffffffffffffffffffffffffffffffffffff82169050919050565b600061077d82610752565b9050919050565b61078d81610772565b82525050565b60006020820190506107a86000830184610784565b92915050565b6000819050919050565b60006107d36107ce6107c984610752565b6107ae565b610752565b9050919050565b60006107e5826107b8565b9050919050565b60006107f7826107da565b9050919050565b610807816107ec565b82525050565b600060208201905061082260008301846107fe565b92915050565b600080fd5b61083681610772565b811461084157600080fd5b50565b6000813590506108538161082d565b92915050565b6000819050919050565b61086c81610859565b811461087757600080fd5b50565b60008135905061088981610863565b92915050565b600080604083850312156108a6576108a5610828565b5b60006108b485828601610844565b92505060206108c58582860161087a565b9150509250929050565b6000602082840312156108e5576108e4610828565b5b60006108f384828501610844565b91505092915050565b61090581610859565b82525050565b600060208201905061092060008301846108fc565b92915050565b7f4e487b7100000000000000000000000000000000000000000000000000000000600052601160045260246000fd5b600061096082610859565b915061096b83610859565b925082820190508082111561098357610982610926565b5b92915050565b60008151905061099881610863565b92915050565b6000602082840312156109b4576109b3610828565b5b60006109c284828501610989565b91505092915050565b60006040820190506109e06000830185610784565b6109ed60208301846108fc565b9392505050565b6109fd8161071c565b8114610a0857600080fd5b50565b600081519050610a1a816109f4565b92915050565b600060208284031215610a3657610a35610828565b5b6000610a4484828501610a0b565b9150509291505056fea264697066735822122072362e872928015de18c65eb31704a43f2c4657d31797ff9aa1f85b24dbd306564736f6c63430008110033",
  "linkReferences": {},
  "deployedLinkReferences": {}
}