{
  "_format": "hh-sol-artifact-1",
  "contractName": "sxr",
  "sourceName": "contracts/Sxr.sol",
  "abi": [
    {
      "inputs": [],
      "name": "add",
      "outputs": [],
      "stateMutability": "nonpayable",
      "type": "function"
    },
    {
      "inputs": [],
      "name": "calc",
      "outputs": [
        {
          "internalType": "uint256",
          "name": "",
          "type": "uint256"
        }
      ],
      "stateMutability": "pure",
      "type": "function"
    },
    {
      "inputs": [],
      "name": "index",
      "outputs": [
        {
          "internalType": "uint256",
          "name": "",
          "type": "uint256"
        }
      ],
      "stateMutability": "view",
      "type": "function"
    },
    {
      "inputs": [],
      "name": "index2",
      "outputs": [
        {
          "internalType": "uint256",
          "name": "",
          "type": "uint256"
        }
      ],
      "stateMutability": "view",
      "type": "function"
    },
    {
      "inputs": [],
      "name": "m",
      "outputs": [
        {
          "internalType": "uint256",
          "name": "",
          "type": "uint256"
        }
      ],
      "stateMutability": "view",
      "type": "function"
    }
  ],
  "bytecode": "0x6080604052600560005534801561001557600080fd5b5061026a806100256000396000f3fe608060405234801561001057600080fd5b50600436106100575760003560e01c80631d2ba00b1461005c5780632986c0e51461007a5780634f2be91f146100985780635a2ee019146100a257806396f1b6be146100c0575b600080fd5b6100646100de565b604051610071919061016e565b60405180910390f35b6100826100f4565b60405161008f919061016e565b60405180910390f35b6100a06100fa565b005b6100aa610114565b6040516100b7919061016e565b60405180910390f35b6100c861011a565b6040516100d5919061016e565b60405180910390f35b600060016000546100ef91906101b8565b905090565b60005481565b6001600081548092919061010d906101ec565b9190505550565b60015481565b600061012461013b565b6001816000015161013591906101b8565b91505090565b604051806040016040528060008152602001600081525090565b6000819050919050565b61016881610155565b82525050565b6000602082019050610183600083018461015f565b92915050565b7f4e487b7100000000000000000000000000000000000000000000000000000000600052601160045260246000fd5b60006101c382610155565b91506101ce83610155565b92508282019050808211156101e6576101e5610189565b5b92915050565b60006101f782610155565b91507fffffffffffffffffffffffffffffffffffffffffffffffffffffffffffffffff820361022957610228610189565b5b60018201905091905056fea264697066735822122093e032a8d32dfe47246a714f0fbcc18c48d82ece82dfd1e6108662e1fb00581564736f6c63430008110033",
  "linkReferences": {},
  "deployedLinkReferences": {}
}